{
  "_format": "hh-sol-artifact-1",
  "contractName": "Social",
  "sourceName": "contracts/Social.sol",
  "abi": [
    {
      "anonymous": false,
      "inputs": [
        {
          "indexed": true,
          "internalType": "uint256",
          "name": "postId",
          "type": "uint256"
        },
        {
          "indexed": true,
          "internalType": "address",
          "name": "author",
          "type": "address"
        },
        {
          "indexed": false,
          "internalType": "bytes32",
          "name": "contentHash",
          "type": "bytes32"
        }
      ],
      "name": "PostCreated",
      "type": "event"
    },
    {
      "anonymous": false,
      "inputs": [
        {
          "indexed": true,
          "internalType": "address",
          "name": "user",
          "type": "address"
        },
        {
          "indexed": false,
          "internalType": "string",
          "name": "username",
          "type": "string"
        }
      ],
      "name": "UserRegistered",
      "type": "event"
    },
    {
      "inputs": [
        {
          "internalType": "string",
          "name": "_content",
          "type": "string"
        }
      ],
      "name": "createPost",
      "outputs": [],
      "stateMutability": "nonpayable",
      "type": "function"
    },
    {
      "inputs": [],
      "name": "postCount",
      "outputs": [
        {
          "internalType": "uint256",
          "name": "",
          "type": "uint256"
        }
      ],
      "stateMutability": "view",
      "type": "function"
    },
    {
      "inputs": [
        {
          "internalType": "uint256",
          "name": "",
          "type": "uint256"
        }
      ],
      "name": "posts",
      "outputs": [
        {
          "internalType": "uint256",
          "name": "id",
          "type": "uint256"
        },
        {
          "internalType": "address",
          "name": "author",
          "type": "address"
        },
        {
          "internalType": "string",
          "name": "content",
          "type": "string"
        },
        {
          "internalType": "bytes32",
          "name": "contentHash",
          "type": "bytes32"
        },
        {
          "internalType": "uint256",
          "name": "timestamp",
          "type": "uint256"
        }
      ],
      "stateMutability": "view",
      "type": "function"
    },
    {
      "inputs": [
        {
          "internalType": "string",
          "name": "_username",
          "type": "string"
        }
      ],
      "name": "registerUser",
      "outputs": [],
      "stateMutability": "nonpayable",
      "type": "function"
    },
    {
      "inputs": [
        {
          "internalType": "address",
          "name": "",
          "type": "address"
        }
      ],
      "name": "users",
      "outputs": [
        {
          "internalType": "address",
          "name": "userAddress",
          "type": "address"
        },
        {
          "internalType": "string",
          "name": "username",
          "type": "string"
        },
        {
          "internalType": "bool",
          "name": "isRegistered",
          "type": "bool"
        }
      ],
      "stateMutability": "view",
      "type": "function"
    },
    {
      "inputs": [
        {
          "internalType": "uint256",
          "name": "_postId",
          "type": "uint256"
        },
        {
          "internalType": "string",
          "name": "_content",
          "type": "string"
        }
      ],
      "name": "verifyPostHash",
      "outputs": [
        {
          "internalType": "bool",
          "name": "",
          "type": "bool"
        }
      ],
      "stateMutability": "view",
      "type": "function"
    }
  ],
  "bytecode": "0x608060405234801561001057600080fd5b506110ad806100206000396000f3fe608060405234801561001057600080fd5b50600436106100625760003560e01c80630b1e7f831461006757806317906c2e1461009b578063704f1b94146100b9578063a87430ba146100d5578063c7303c6114610107578063e4b1219e14610123575b600080fd5b610081600480360381019061007c9190610778565b610153565b60405161009295949392919061089e565b60405180910390f35b6100a3610231565b6040516100b091906108f8565b60405180910390f35b6100d360048036038101906100ce9190610a48565b610237565b005b6100ef60048036038101906100ea9190610abd565b610409565b6040516100fe93929190610b05565b60405180910390f35b610121600480360381019061011c9190610a48565b6104e8565b005b61013d60048036038101906101389190610b43565b6106e0565b60405161014a9190610b9f565b60405180910390f35b60016020528060005260406000206000915090508060000154908060010160009054906101000a900473ffffffffffffffffffffffffffffffffffffffff16908060020180546101a290610be9565b80601f01602080910402602001604051908101604052809291908181526020018280546101ce90610be9565b801561021b5780601f106101f05761010080835404028352916020019161021b565b820191906000526020600020905b8154815290600101906020018083116101fe57829003601f168201915b5050505050908060030154908060040154905085565b60025481565b6000803373ffffffffffffffffffffffffffffffffffffffff1673ffffffffffffffffffffffffffffffffffffffff16815260200190815260200160002060020160009054906101000a900460ff16156102c6576040517f08c379a00000000000000000000000000000000000000000000000000000000081526004016102bd90610c66565b60405180910390fd5b60405180606001604052803373ffffffffffffffffffffffffffffffffffffffff168152602001828152602001600115158152506000803373ffffffffffffffffffffffffffffffffffffffff1673ffffffffffffffffffffffffffffffffffffffff16815260200190815260200160002060008201518160000160006101000a81548173ffffffffffffffffffffffffffffffffffffffff021916908373ffffffffffffffffffffffffffffffffffffffff16021790555060208201518160010190816103949190610e32565b5060408201518160020160006101000a81548160ff0219169083151502179055509050503373ffffffffffffffffffffffffffffffffffffffff167f48cac28ad4dc618e15f4c2dd5e97751182f166de97b25618318b2112aa951a2f826040516103fe9190610f04565b60405180910390a250565b60006020528060005260406000206000915090508060000160009054906101000a900473ffffffffffffffffffffffffffffffffffffffff169080600101805461045290610be9565b80601f016020809104026020016040519081016040528092919081815260200182805461047e90610be9565b80156104cb5780601f106104a0576101008083540402835291602001916104cb565b820191906000526020600020905b8154815290600101906020018083116104ae57829003601f168201915b5050505050908060020160009054906101000a900460ff16905083565b6000803373ffffffffffffffffffffffffffffffffffffffff1673ffffffffffffffffffffffffffffffffffffffff16815260200190815260200160002060020160009054906101000a900460ff16610576576040517f08c379a000000000000000000000000000000000000000000000000000000000815260040161056d90610f72565b60405180910390fd5b6002600081548092919061058990610fc1565b91905055506000816040516020016105a19190611045565b6040516020818303038152906040528051906020012090506040518060a0016040528060025481526020013373ffffffffffffffffffffffffffffffffffffffff168152602001838152602001828152602001428152506001600060025481526020019081526020016000206000820151816000015560208201518160010160006101000a81548173ffffffffffffffffffffffffffffffffffffffff021916908373ffffffffffffffffffffffffffffffffffffffff16021790555060408201518160020190816106739190610e32565b5060608201518160030155608082015181600401559050503373ffffffffffffffffffffffffffffffffffffffff166002547ff0a91de6351524f56aafc0673160334bc21d381ebe88e6c274834cf8f2c08dbc836040516106d4919061105c565b60405180910390a35050565b600080826040516020016106f49190611045565b6040516020818303038152906040528051906020012090508060016000868152602001908152602001600020600301541491505092915050565b6000604051905090565b600080fd5b600080fd5b6000819050919050565b61075581610742565b811461076057600080fd5b50565b6000813590506107728161074c565b92915050565b60006020828403121561078e5761078d610738565b5b600061079c84828501610763565b91505092915050565b6107ae81610742565b82525050565b600073ffffffffffffffffffffffffffffffffffffffff82169050919050565b60006107df826107b4565b9050919050565b6107ef816107d4565b82525050565b600081519050919050565b600082825260208201905092915050565b60005b8381101561082f578082015181840152602081019050610814565b60008484015250505050565b6000601f19601f8301169050919050565b6000610857826107f5565b6108618185610800565b9350610871818560208601610811565b61087a8161083b565b840191505092915050565b6000819050919050565b61089881610885565b82525050565b600060a0820190506108b360008301886107a5565b6108c060208301876107e6565b81810360408301526108d2818661084c565b90506108e1606083018561088f565b6108ee60808301846107a5565b9695505050505050565b600060208201905061090d60008301846107a5565b92915050565b600080fd5b600080fd5b7f4e487b7100000000000000000000000000000000000000000000000000000000600052604160045260246000fd5b6109558261083b565b810181811067ffffffffffffffff821117156109745761097361091d565b5b80604052505050565b600061098761072e565b9050610993828261094c565b919050565b600067ffffffffffffffff8211156109b3576109b261091d565b5b6109bc8261083b565b9050602081019050919050565b82818337600083830152505050565b60006109eb6109e684610998565b61097d565b905082815260208101848484011115610a0757610a06610918565b5b610a128482856109c9565b509392505050565b600082601f830112610a2f57610a2e610913565b5b8135610a3f8482602086016109d8565b91505092915050565b600060208284031215610a5e57610a5d610738565b5b600082013567ffffffffffffffff811115610a7c57610a7b61073d565b5b610a8884828501610a1a565b91505092915050565b610a9a816107d4565b8114610aa557600080fd5b50565b600081359050610ab781610a91565b92915050565b600060208284031215610ad357610ad2610738565b5b6000610ae184828501610aa8565b91505092915050565b60008115159050919050565b610aff81610aea565b82525050565b6000606082019050610b1a60008301866107e6565b8181036020830152610b2c818561084c565b9050610b3b6040830184610af6565b949350505050565b60008060408385031215610b5a57610b59610738565b5b6000610b6885828601610763565b925050602083013567ffffffffffffffff811115610b8957610b8861073d565b5b610b9585828601610a1a565b9150509250929050565b6000602082019050610bb46000830184610af6565b92915050565b7f4e487b7100000000000000000000000000000000000000000000000000000000600052602260045260246000fd5b60006002820490506001821680610c0157607f821691505b602082108103610c1457610c13610bba565b5b50919050565b7f5573657220616c72656164792072656769737465726564000000000000000000600082015250565b6000610c50601783610800565b9150610c5b82610c1a565b602082019050919050565b60006020820190508181036000830152610c7f81610c43565b9050919050565b60008190508160005260206000209050919050565b60006020601f8301049050919050565b600082821b905092915050565b600060088302610ce87fffffffffffffffffffffffffffffffffffffffffffffffffffffffffffffffff82610cab565b610cf28683610cab565b95508019841693508086168417925050509392505050565b6000819050919050565b6000610d2f610d2a610d2584610742565b610d0a565b610742565b9050919050565b6000819050919050565b610d4983610d14565b610d5d610d5582610d36565b848454610cb8565b825550505050565b600090565b610d72610d65565b610d7d818484610d40565b505050565b5b81811015610da157610d96600082610d6a565b600181019050610d83565b5050565b601f821115610de657610db781610c86565b610dc084610c9b565b81016020851015610dcf578190505b610de3610ddb85610c9b565b830182610d82565b50505b505050565b600082821c905092915050565b6000610e0960001984600802610deb565b1980831691505092915050565b6000610e228383610df8565b9150826002028217905092915050565b610e3b826107f5565b67ffffffffffffffff811115610e5457610e5361091d565b5b610e5e8254610be9565b610e69828285610da5565b600060209050601f831160018114610e9c5760008415610e8a578287015190505b610e948582610e16565b865550610efc565b601f198416610eaa86610c86565b60005b82811015610ed257848901518255600182019150602085019450602081019050610ead565b86831015610eef5784890151610eeb601f891682610df8565b8355505b6001600288020188555050505b505050505050565b60006020820190508181036000830152610f1e818461084c565b905092915050565b7f55736572206e6f74207265676973746572656400000000000000000000000000600082015250565b6000610f5c601383610800565b9150610f6782610f26565b602082019050919050565b60006020820190508181036000830152610f8b81610f4f565b9050919050565b7f4e487b7100000000000000000000000000000000000000000000000000000000600052601160045260246000fd5b6000610fcc82610742565b91507fffffffffffffffffffffffffffffffffffffffffffffffffffffffffffffffff8203610ffe57610ffd610f92565b5b600182019050919050565b600081905092915050565b600061101f826107f5565b6110298185611009565b9350611039818560208601610811565b80840191505092915050565b60006110518284611014565b915081905092915050565b6000602082019050611071600083018461088f565b9291505056fea264697066735822122015062f35d7318860e081be131fcbdeca63e402130ead7951a498e87815919a4564736f6c63430008140033",
  "linkReferences": {},
  "deployedLinkReferences": {}
}